{
  "contractName": "Election",
  "abi": [
    {
      "inputs": [],
      "stateMutability": "nonpayable",
      "type": "constructor"
    },
    {
      "anonymous": false,
      "inputs": [
        {
          "indexed": true,
          "internalType": "uint256",
          "name": "_canId",
          "type": "uint256"
        }
      ],
      "name": "votedEvent",
      "type": "event"
    },
    {
      "inputs": [],
      "name": "candidateCounter",
      "outputs": [
        {
          "internalType": "uint256",
          "name": "",
          "type": "uint256"
        }
      ],
      "stateMutability": "view",
      "type": "function",
      "constant": true
    },
    {
      "inputs": [
        {
          "internalType": "uint256",
          "name": "",
          "type": "uint256"
        }
      ],
      "name": "candidates",
      "outputs": [
        {
          "internalType": "uint256",
          "name": "id",
          "type": "uint256"
        },
        {
          "internalType": "string",
          "name": "name",
          "type": "string"
        },
        {
          "internalType": "uint256",
          "name": "v_count",
          "type": "uint256"
        }
      ],
      "stateMutability": "view",
      "type": "function",
      "constant": true
    },
    {
      "inputs": [
        {
          "internalType": "address",
          "name": "",
          "type": "address"
        }
      ],
      "name": "voters",
      "outputs": [
        {
          "internalType": "bool",
          "name": "",
          "type": "bool"
        }
      ],
      "stateMutability": "view",
      "type": "function",
      "constant": true
    },
    {
      "inputs": [
        {
          "internalType": "uint256",
          "name": "_canId",
          "type": "uint256"
        }
      ],
      "name": "vote",
      "outputs": [],
      "stateMutability": "nonpayable",
      "type": "function"
    }
  ],
  "bytecode": "0x608060405234801561001057600080fd5b506100556040518060400160405280600481526020017f4a61636b0000000000000000000000000000000000000000000000000000000081525061009e60201b60201c565b6100996040518060400160405280600481526020017f4d696b650000000000000000000000000000000000000000000000000000000081525061009e60201b60201c565b6102a4565b6000808154809291906100b0906101fa565b9190505550604051806060016040528060005481526020018281526020016000815250600260008054815260200190815260200160002060008201518160000155602082015181600101908051906020019061010d92919061011e565b506040820151816002015590505050565b82805461012a90610272565b90600052602060002090601f01602090048101928261014c5760008555610193565b82601f1061016557805160ff1916838001178555610193565b82800160010185558215610193579182015b82811115610192578251825591602001919060010190610177565b5b5090506101a091906101a4565b5090565b5b808211156101bd5760008160009055506001016101a5565b5090565b7f4e487b7100000000000000000000000000000000000000000000000000000000600052601160045260246000fd5b6000819050919050565b6000610205826101f0565b91507fffffffffffffffffffffffffffffffffffffffffffffffffffffffffffffffff821415610238576102376101c1565b5b600182019050919050565b7f4e487b7100000000000000000000000000000000000000000000000000000000600052602260045260246000fd5b6000600282049050600182168061028a57607f821691505b6020821081141561029e5761029d610243565b5b50919050565b610623806102b36000396000f3fe608060405234801561001057600080fd5b506004361061004c5760003560e01c80630121b93f146100515780633477ee2e1461006d5780633bc990db1461009f578063a3ec138d146100bd575b600080fd5b61006b60048036038101906100669190610325565b6100ed565b005b61008760048036038101906100829190610325565b610212565b604051610096939291906103fa565b60405180910390f35b6100a76102c4565b6040516100b49190610438565b60405180910390f35b6100d760048036038101906100d291906104b1565b6102ca565b6040516100e491906104f9565b60405180910390f35b600160003373ffffffffffffffffffffffffffffffffffffffff1673ffffffffffffffffffffffffffffffffffffffff16815260200190815260200160002060009054906101000a900460ff161561014457600080fd5b60008111801561015657506000548111155b61015f57600080fd5b60018060003373ffffffffffffffffffffffffffffffffffffffff1673ffffffffffffffffffffffffffffffffffffffff16815260200190815260200160002060006101000a81548160ff0219169083151502179055506002600082815260200190815260200160002060020160008154809291906101dd90610543565b9190505550807ffff3c900d938d21d0990d786e819f29b8d05c1ef587b462b939609625b684b1660405160405180910390a250565b600260205280600052604060002060009150905080600001549080600101805461023b906105bb565b80601f0160208091040260200160405190810160405280929190818152602001828054610267906105bb565b80156102b45780601f10610289576101008083540402835291602001916102b4565b820191906000526020600020905b81548152906001019060200180831161029757829003601f168201915b5050505050908060020154905083565b60005481565b60016020528060005260406000206000915054906101000a900460ff1681565b600080fd5b6000819050919050565b610302816102ef565b811461030d57600080fd5b50565b60008135905061031f816102f9565b92915050565b60006020828403121561033b5761033a6102ea565b5b600061034984828501610310565b91505092915050565b61035b816102ef565b82525050565b600081519050919050565b600082825260208201905092915050565b60005b8381101561039b578082015181840152602081019050610380565b838111156103aa576000848401525b50505050565b6000601f19601f8301169050919050565b60006103cc82610361565b6103d6818561036c565b93506103e681856020860161037d565b6103ef816103b0565b840191505092915050565b600060608201905061040f6000830186610352565b818103602083015261042181856103c1565b90506104306040830184610352565b949350505050565b600060208201905061044d6000830184610352565b92915050565b600073ffffffffffffffffffffffffffffffffffffffff82169050919050565b600061047e82610453565b9050919050565b61048e81610473565b811461049957600080fd5b50565b6000813590506104ab81610485565b92915050565b6000602082840312156104c7576104c66102ea565b5b60006104d58482850161049c565b91505092915050565b60008115159050919050565b6104f3816104de565b82525050565b600060208201905061050e60008301846104ea565b92915050565b7f4e487b7100000000000000000000000000000000000000000000000000000000600052601160045260246000fd5b600061054e826102ef565b91507fffffffffffffffffffffffffffffffffffffffffffffffffffffffffffffffff82141561058157610580610514565b5b600182019050919050565b7f4e487b7100000000000000000000000000000000000000000000000000000000600052602260045260246000fd5b600060028204905060018216806105d357607f821691505b602082108114156105e7576105e661058c565b5b5091905056fea2646970667358221220d2139f61e5832de512bd94a8a33ad60dc5a94e76d22de5d7b5bddc95235ab10064736f6c634300080b0033",
  "immutableReferences": {},
  "source": "// SPDX-License-Identifier: MIT\npragma solidity ^0.8.11;\n\ncontract Election {\n    struct Candidate {\n        uint id;\n        string name;\n        uint v_count;\n    }\n    uint public candidateCounter;\n\n    // Store accounts that have voted\n    mapping(address => bool) public voters;\n    // Store candidates\n    mapping(uint => Candidate) public candidates;\n\n    // voted event\n    event votedEvent(uint indexed _canId);\n\n    constructor () {\n        addCandidate(\"Jack\");\n        addCandidate(\"Mike\");  \n    }\n\n    // Adding candidates to the map\n    function addCandidate (string memory _name) private {\n        candidateCounter ++;\n        candidates[candidateCounter] = Candidate(candidateCounter, _name, 0);\n    }\n    \n    // voting funtion !!msg.sender = meta data to know the voter's account !! <= provided by solidity \n    //what's under the 'require' wont be executed only if require returns true\n    function vote(uint _canId) public {\n        // require the voter didnt vote yet\n        require(!voters[msg.sender]);\n        // require the validate Id of candidate\n        require(_canId > 0 && _canId <= candidateCounter);\n\n        voters[msg.sender]=true;\n        candidates[_canId].v_count ++;\n\n        // trigger voted event\n        emit votedEvent(_canId);\n    }\n\n}",
  "sourcePath": "/home/fawez/Work/blockchain/contracts/Election.sol",
  "compiler": {
    "name": "solc",
    "version": "0.8.11+commit.d7f03943.Emscripten.clang"
  },
  "schemaVersion": "3.4.16",
  "updatedAt": "2024-03-05T22:06:23.862Z",
  "networkType": "ethereum",
  "devdoc": {
    "kind": "dev",
    "methods": {},
    "version": 1
  },
  "userdoc": {
    "kind": "user",
    "methods": {},
    "version": 1
  }
}